:030000000201A654
:10000B0002028CE709F608DFFA8046E709F208DFFF
:10001B00FA803E88828C83E709F0A3DFFA8032E313
:10002B0009F608DFFA8078E309F208DFFA807088B6
:10003B00828C83E309F0A3DFFA806489828A83E0F0
:10004B00A3F608DFFA805889828A83E0A3F208DFDF
:10005B00FA804C80D280FA80C680D4806980F2808E
:10006B0033801080A680EA809A80A880DA80E280B4
:10007B00CA803389828A83ECFAE493A3C8C582C809
:10008B00CCC583CCF0A3C8C582C8CCC583CCDFE973
:10009B00DEE7800D89828A83E493A3F608DFF9EC0F
:1000AB00FAA9F0EDFB2289828A83ECFAE0A3C8C59A
:1000BB0082C8CCC583CCF0A3C8C582C8CCC583CCC1
:1000CB00DFEADEE880DB89828A83E493A3F208DF30
:1000DB00F980CC88F0EF60010E4E60C388F0ED2400
:1000EB0002B4040050B9F582EB2402B4040050AF03
:1000FB00232345822390005E7378097C007D007B6F
:10010B00FF7A03795F7E007F081200DE300017E56F
:10011B001375F00A84E5F090035493F509E5137514
:10012B00F00A8493F50A300117E51475F00A84E59B
:10013B00F090035493F50CE51475F00A8493F50DC8
:10014B00300217E51575F00A84E5F090035493F52A
:10015B000FE51575F00A8493F51030000F30010C84
:10016B0030020990035EE493F50BF50EE4FDED13FD
:10017B0092A2EDC3131392A3ED1313543F1392A446
:10018B0074092DF8E6FFB4FF05E4F58080028F803B
:10019B0012033BE4F5800DBD08D422787FE4F6D83A
:1001AB00FD7581200201ED020232E493A3F8E49382
:1001BB00A34003F68001F208DFF48029E493A3F84F
:1001CB005407240CC8C333C4540F4420C8834004C1
:1001DB00F456800146F6DFE4800B01020408102080
:1001EB00408090034AE47E019360BCA3FF543F30F0
:1001FB00E509541FFEE493A360010ECF54C025E024
:10020B0060A840B8E493A3FAE493A3F8E493A3C8DB
:10021B00C582C8CAC583CAF0A3C8C582C8CAC5836C
:10022B00CADFE9DEE780BE12032B120317EF2508A6
:10023B00F5087006D200D2018019E50824FE60177C
:10024B0014601F240270291202F67B171202D2C20D
:10025B0000C201D20280141202CDC200D201C2022E
:10026B0080091202CDD200C201C20212010480BA6F
:10027B00E4F50812032BD200D201D2021201048042
:10028B00A9C0E0C0D00512E51270020511758CFCF7
:10029B00758A18E51264C845117006F511F512053B
:1002AB0013E513B43C050514751300E514B43C05B4
:1002BB000515751400E515B41803751500D0D0D0CD
:1002CB00E0321202F67B3BAD07AF08C374039F24E9
:1002DB0013F8E6FE7006ED7003A60322EEB50306D7
:1002EB00BD0203E4F622ED1426F62220B20C120313
:1002FB003B20B20630B2FD7F022220B30C12033B2F
:10030B0020B30630B3FD7F00227F012220B10EC245
:10031B008C12033B20B10630B1FD7F01227F0022FE
:10032B00438901758CFC758A18D2A9D28CD2AF2265
:10033B007F647E00EF1FAC0670011E4C70F622022C
:10034B00110000031300000C003F065B4F666D7D30
:0C035B00077F6F40FFFFFFFFFFFFFFFF69
:00000001FF
