:10010700EF1FAA0670011E4A6013E4FCFDC3ED94BD
:0D01170064EC940050EA0DBD00010C80F076
:0101240022B8
:1000030020B008050FE50F7002050EE50E60030230
:1000130000C5E50F14B4090040030200C590002E8B
:1000230075F003A4C58325F0C5837302004902005C
:100033005702006502007302008102008F02009DD7
:100043000200AB0200B9750A00750B09750800754B
:100053000901806E750A00750B08750800750902A1
:100063008060750A00750B077508007509038052D7
:10007300750A00750B067508007509048044750A36
:1000830000750B057508007509058036750A00753E
:100093000B047508007509068028750A00750B03A3
:1000A300750800750907801A750A00750B02750833
:1000B30000750908800C750A00750B017508007539
:1000C300090930B0FDE50F640A450E7004F50EF51D
:1000D3000FE4F50CF50DC3E50D9402E50C94004017
:1000E30003020003C297D296AF09AE08120107D2EA
:1000F30097C296AF0BAE0A120107050DE50D70D638
:04010300050C80D295
:03000000020125D5
:0C012500787FE4F6D8FD75810F0200031E
:00000001FF
