:05001D0063646566004C
:10002600D2A0D2A11200AB7BFF7A00791D12006D1F
:10003600E508B401FBAF0A1200CDE4F508E50A2491
:1000460023601224EF601424EF6016243370E1D28B
:10005600A0D2A180DBC2A0D2A180D5D2A0C2A180AD
:07006600CFC2A0C2A180C9B6
:1000AB00759850758920758780758DF9758BF9D288
:0600BB00ACD2AFD28E2290
:10006D008B0C8A0D890EAB0CAA0DA90E1200926095
:10007D0013050EE50E7002050D14F9120092FF1214
:05008D0000CD80E2221D
:0A00CD00E50970FC7509018F992206
:03002300020003D5
:10000300758DF9758BF9309808C29885990A75082A
:0A00130001309905C2997509003209
:030000000200C13A
:0C00C100787FE4F6D8FD75810E02002661
:10009200BB010689828A83E0225002E722BBFE026C
:0900A200E32289828A83E493229F
:00000001FF
