:100026008C5B156704900C4479DC3482C806225632
:10003600859AC1E403F8F9FAFAFBFBFCFCFCFCFD2B
:10004600FDFDFEFEFEFEFEFEFEFF050409020802A1
:100056000904080209020A030B010A020802090838
:1000660009010A020A01090108020701070108023B
:100076000701070108020902070206020502070234
:1000860006080504090208020904080209020A0210
:100096000A010B010902090409020A020B040702FC
:1000A60008020902090209020A020B0408020902EF
:1000B6000A040A02090207040A0209020A040502DE
:1000C6000702080407020802090409020A020B04CF
:1000D6000C020D020E020E020902090409020B02AD
:1000E6000C020E020E020C020B040B020C020B0891
:1000F600090409020B020C020E020E020C020B048A
:100106000B020C020B080B040B040B0409020B0276
:10011600090209020A020B020B020A02090208027C
:100126000702070208020902090308010804090276
:1001360009020A020B020B020A020902080207025E
:100146000702080209020803070107040802080259
:0E01560009020702080209010A010902070254
:03001B00011600CB
:10054C00758901E4F587759850758DFD758BFDD215
:06055C008ED2ACD2AF22EA
:080003008F993099FDC299228A
:040509007F027E00EF
:10050D00E4FDFCC3ED9FEC9E5015E4FBFA0BBB0024
:0F051D00010AEB64704A70F50DBD00010C80E41B
:01052C0022AC
:100492008F16EF90003B93F58CEF90002693F58A30
:1004A200D28CE4F514F515AC14AD15EC1201E2ABE7
:1004B20013AA12A911A810120164601340117FC877
:1004C2007E0012050D0515E51570DC051480D8C2F5
:0304D2008CD29435
:0104D5002204
:0A0328008B088A09890A8C0B8D0CE2
:10033200E4F50DF50EC3E50E950CE50D950B507128
:10034200E5186401704BAB08AA09A90A850E8285DB
:100352000D8312021BFFC007E50E2401FFE4350DD9
:100362008F82F58312021BFCE41201E78F138E12B7
:100372008D118C10D0071204927402250EF50EE432
:10038200350DF50DE50EB50C08E50DB50B03E4F5DD
:10039200182090A17F0A7E0012050D3090FD7F0A81
:1003A2007E0012050D0517E517D394044003E4F50A
:0103B2001733
:0103B3002227
:0D000E00758901E4F58CF58AD2A9D2AF22E4
:1004D60020B0037F012220B1037F022220B2037FD6
:1004E600032220B3037F042220B4037F052220B514
:1004F600037F062220B6037F072220B7037F082248
:030506007F002251
:10025600E4F517F518E5186401703BE51724FE6010
:100266001414601B1460222403702B7BFF7A007920
:10027600E07D36801C7BFF7A0179167D4E80127BED
:10028600FF7A0079507D4C80087BFF7A00799C7D4F
:10029600447C001203282090227F017E0012050D67
:1002A6003090FD7F017E0012050D0517751801E5DA
:1002B60017D394044005E4F517F5181204D6A907D8
:1002C600E9602590004193F58CE990002C93F58A1E
:1002D600E92406F516D28C1204D6EF70FA7F467E14
:1002E6000012050DC28CD2943090047F0180027FEB
:1002F60000E970047E0180027E00EE5FFF3091040B
:100306007E0180027E00EE5FFF3092047E01800255
:100316007E00EE5F700302025B12000E12054C02B5
:02032600025B78
:03000B0002052DBE
:10052D00C0E0C083C082B294E51690003B93F58C79
:0F053D00E51690002693F58AD082D083D0E03265
:0300230002044094
:10044000C0E0C0D075D000C002C003C004C005C069
:1004500006C00730982BC298859919E519B4300762
:10046000C290120509D290E519B43109C291120562
:1004700009D2918007C292120509D292AF191200D7
:1004800003D007D006D005D004D003D002D0D0D0FE
:02049000E03258
:1001640074F8CC6480CCC86480C8F58204604FC342
:10017400EB9FF5F0EA9E42F0E99D42F0E89C45F0E1
:10018400603C501DE5825FFFE582D313CB5BCBF46B
:100194002B5582FB50280ABA002409B90020088094
:1001A4001DE5825BFBE582D313CF5FCFF4C3132F2E
:1001B4005582FF50090EBE00050DBD00010CC3EBB6
:1001C4009FF5F0EA9E42F0E99D42F0E89C45F0601C
:0901D40007CC4820E701B3EC223E
:1001DD0075F020800E75F010800575F0087D007E9D
:1001ED00007F003392D530D503120248EC33401016
:1001FD00EF33FFEE33FEED33FDEC33FCD5F0ED22A6
:0E020D00E5F0247EA2D513CC92E7CDCEFF22E1
:030000000203B444
:0C03B400787FE4F6D8FD7581190203FB88
:10021B00BB010CE58229F582E5833AF583E0225098
:10022B0006E92582F8E622BBFE06E92582F8E222E2
:0D023B00E58229F582E5833AF583E49322FC
:0E024800C3E49FFFE49EFEE49DFDE49CFC22C7
:1003C000020256E493A3F8E493A34003F68001F2FB
:1003D00008DFF48029E493A3F85407240CC8C3333E
:1003E000C4540F4420C8834004F456800146F6DF0D
:1003F000E4800B010204081020408090001BE47E82
:10040000019360BCA3FF543F30E509541FFEE49301
:10041000A360010ECF54C025E060A840B8E493A3C8
:10042000FAE493A3F8E493A3C8C582C8CAC583CAF3
:10043000F0A3C8C582C8CAC583CADFE9DEE780BEAB
:01001E0000E1
:00000001FF
