:10039300E4FDFCC3ED9FEC9E5015E4FBFA0BBB00A0
:0F03A300010AEB64704A70F50DBD00010C80E497
:0103B2002228
:0B041500EF1FAC0670011E4C70F622B9
:050420001202FA80FB4E
:0E040700E4F5A07FD07E0712039375A0FF22BC
:1002960075A0FFE4F519E4F518AF187401A807086E
:1002A6008002C333D8FCF4F5A07F647E001203936A
:1002B6000518E518C3940840E0E518B40826E4F5E7
:1002C6001AAF1A7480A807088002C313D8FCF4F585
:1002D600A07F647E00120393051AE51AC3940840B2
:1002E600E07518090519E519C3940140A97FD07E68
:0402F6000702039365
:1003E7003F065B4F666D7D077F6F777C395E79715E
:0303CF00011C0806
:10000300E4F518C2A27580FFC2A37580FFC2A47570
:1000130080FF7F017E00120393B2A27580FFB2A31B
:100023007580FFB2A47580FF7F017E00120393C227
:10003300A27580FFC2A37580FFD2A47580FF7F01E4
:100043007E00120393B2A27580FFB2A37580FFB244
:10005300A47580FF7F017E00120393C2A27580FF07
:10006300D2A37580FFC2A47580FF7F017E001203B7
:1000730093B2A27580FFB2A37580FFB2A47580FF0F
:100083007F017E00120393D2A27580FFC2A3758005
:10009300FFC2A47580FF7F017E00120393B2A27595
:1000A30080FFB2A37580FFB2A47580FF7F017E003D
:1000B3001203930518E518C394F05003020006D207
:0C00C300A2D2A3D2A47FD07E0702039338
:10017D00E4F519E4F518E518B40800505D90019107
:10018D00F82828730201A90201AD0201B30201B9D9
:10019D000201C10201C90201D10201D9D2A280021C
:1001AD00C2A2D2A3800AD2A2C2A38004C2A2C2A3B9
:1001BD00D2A4801ED2A2D2A3C2A48016C2A2D2A360
:1001CD00C2A4800ED2A2C2A3C2A48006C2A2C2A3A0
:1001DD00C2A4E5189003E793F5807F017E0012031A
:1001ED0093E4F5800518E518C3940840890519E5D1
:0C01FD0019C394C8500302018075A0FFD4
:0102090022D2
:1003B300E4F518B2A57F017E001203930518E51832
:0C03C300C394F040EE7FD07E070203934D
:1003F7003F065B4F666D7D077F6F777C395E79714E
:1000CF0075900FE590640F60587FE87E031204155A
:1000DF00E590640F604B75900FAF90EF24F56010B3
:1000EF0024FE601114601324077012E4F51B800DB9
:1000FF00751B018008751B028003751B037590F03B
:10010F00AF90EF2450600C24E0600C24F0600C24BE
:10011F0070800E7404800674088002740C251BF521
:10012F001B20B1107F0A7E0012039320B103751BB1
:10013F001130B1FD20B0107F0A7E0012039320B062
:10014F0003751B1230B0FD20B2107F0A7E00120320
:10015F009320B203751B1330B2FD20B3107F0A7EBC
:0E016F000012039320B303751B1430B3FD225E
:1002FA001200CFE51BB41115120407120296120060
:10030A000312017D1203B3120336E4F51BC3E51B86
:10031A00648094915015AF1BEF3395E0FE74F72F6C
:0C032A00F58274033EF583E493F5802215
:1003D200080800003E4141413E0008107FBFDFEFA8
:0403E200F7FBFDFE2A
:10036D00D2B6D2B5E4FEEFC4131313540124FF9299
:10037D00B4EF25E0FFC2B60000D2B60EBE08E7C24C
:05038D00B50000D2B52F
:010392002248
:10033600E4F519E4F51874102518F8E6F580740844
:100346002518F8E6FF12036D7F027E00120393E480
:10035600FF12036D0518E518C3940840D90519E581
:0603660019C3946440CDB0
:01036C00226E
:0300000002020AEF
:0C020A00787FE4F6D8FD75811C020251DB
:10021600020420E493A3F8E493A34003F68001F2DA
:1002260008DFF48029E493A3F85407240CC8C333E9
:10023600C4540F4420C8834004F456800146F6DFB8
:10024600E4800B01020408102040809003CFE47E76
:10025600019360BCA3FF543F30E509541FFEE493AD
:10026600A360010ECF54C025E060A840B8E493A374
:10027600FAE493A3F8E493A3C8C582C8CAC583CA9F
:10028600F0A3C8C582C8CAC583CADFE9DEE780BE57
:0103E6000016
:00000001FF
