:1002A6003F065B4F666D7D077F6F3E3D3B372F1FD9
:04000300026C00008B
:10000E00758901758C3C758AB0D2AFD2A9D28CE4B9
:10001E00F56CF56DAE6CAF6DEE3395E0FDFC7B804F
:10002E007A5179017800D312015F40E3AE6CAF6D67
:10003E007C007D0A12012974A62DF58274023CF50E
:10004E0083E493F5809002B5120286E4F580AE6CDF
:10005E00AF6DFC7D0A1201297C007D061201297408
:10006E00A62DF58274023CF583E493F5809002B4DC
:10007E00120286E4F580AE6CAF6DFC7D3C12012958
:10008E007C007D0A12012974A62DF58274023CF5BE
:10009E0083E493F5809002B3120286E4F580AE6C91
:1000AE00AF6DFC7D3C1201297C007D061201297486
:1000BE00A62DF58274023CF583E493F5809002B28E
:1000CE00120286E4F580AE6CAF6D7C0E7D101201CF
:1000DE00297C007D0A12012974A62DF58274023C3A
:1000EE00F583E493F5809002B1120286E4F580AEBA
:1000FE006CAF6D7C0E7D101201297C007D03120108
:10010E002974A62DF58274023CF583E493F5809054
:0B011E0002B0120286E4F5800200220D
:03000B0002025698
:0B025600C0E0C0D075D000C006C0079B
:10026100E4FFFE0FBF00010E758C3C758AB0EF6490
:0C027100144E7008056DE56D7002056C00
:09027D00D007D006D0D0D0E03249
:04028600E493F59078
:10028A00E4FFFE758DFC758B18D28E308FFDC28F00
:0B029A000FBF00010EEF64054E70E87E
:0102A5002236
:030000000201CA30
:0C01CA00787FE4F6D8FD75816D0202110B
:10012900C2D5EC30E709B2D5E4C39DFDE49CFCEEF1
:1001390030E715B2D5E4C39FFFE49EFE120175C3F3
:10014900E49DFDE49CFC800312017530D507C3E4EE
:060159009FFFE49EFE2260
:10015F00EB9FF5F0EA9E42F0E99D42F0EC6480C817
:06016F0064809845F022B7
:1001D60002000EE493A3F8E493A34003F68001F231
:1001E60008DFF48029E493A3F85407240CC8C3332A
:1001F600C4540F4420C8834004F456800146F6DFF9
:10020600E4800B0102040810204080900003E47E85
:10021600019360BCA3FF543F30E509541FFEE493ED
:10022600A360010ECF54C025E060A840B8E493A3B4
:10023600FAE493A3F8E493A3C8C582C8CAC583CADF
:10024600F0A3C8C582C8CAC583CADFE9DEE780BE97
:0100070000F8
:10017500BC000BBE0029EF8DF084FFADF022E4CC6E
:10018500F875F008EF2FFFEE33FEEC33FCEE9DEC37
:10019500984005FCEE9DFE0FD5F0E9E4CEFD22ED7D
:1001A500F8F5F0EE8420D21CFEADF075F008EF2FC7
:1001B500FFED33FD4007985006D5F0F222C398FDB8
:0501C5000FD5F0EA2255
:00000001FF
