:100925002C002E002052656420436F6E74726F6C2C
:10093500202049522D434F44453A2D2D48204F4BF9
:0F094500303132333435363738392E2D4D2C2E94
:1008E8000221000001470E0234000002320000021B
:1008F800250000024500000123C702300000C100A6
:10090800043C000000000140000441000000000514
:0C091800270000000000042C000000007C
:10042E00758911758DFF758B9CE4F58CF58AD28ECE
:10043E00D2ABD2A9D2AF120AC5120A69120A9A7F9A
:10044E0080120AB1E4F509E50990092993FF120A11
:10045E00BB0509E509C3940D40ED7FC0120AB1E456
:10046E00F509E50990093693FF120ABB0509E5095E
:10047E00C3940D40ED12074EE538C4540FF53AE51E
:10048E0038540FF53BE53AD394097FC94009120A57
:10049E00B1E53A24378007120AB1E53A2430FF124B
:1004AE000ABBE53BD394097FCA4009120AB1E53B6A
:1004BE0024378007120AB1E53B2430FF120ABB7FB6
:1004CE00057E00120A12E540640170687BFF7A090E
:1004DE0079431209B4E53AD394097F8D4009120A83
:1004EE00B1E53A24378007120AB1E53A2430FF12FB
:1004FE000ABBE53BD394097F8E4009120AB1E53B56
:10050E0024378007120AB1E53B2430FF120ABBE5FF
:10051E003824AE600E243A70187F8F120AB19009FB
:10052E002C80087F8F120AB190092BE493FF120AD8
:0E053E00BBE4F5407F057E00120A1202048322
:03001800DFFE22E6
:0F0A03007D0A7C00AF0BAE0A120A4A7F1E7E00EE
:100A1200EF1FAA0670011E4A600BE4FDEDC3940DA0
:050A220050EE0D80F70D
:010A270022AC
:090AC500D288D2A8D2AFD2B2222D
:0300030002054CA7
:10054C00C0E0C083C082C0D075D000C000C002C063
:07055C0004C005C006C00742
:100563007524007F467E00120A1230B2030206533E
:100573009003E820B21CD3E5829400E58394004005
:10058300117F017E00120A12E582158270E5158340
:1005930080E120B20302063E9001F430B21CD3E5A1
:1005A300829400E583940040117F017E00120A12B9
:1005B300E582158270E5158380E1E4FC75080090FF
:1005C300003C20B21CD3E5829400E58394004011E3
:1005D3007F017E00120A12E582158270E515838081
:1005E300E19001F430B227D3E5829400E5839400CF
:1005F300401C7F017E00120A120524E582158270D9
:10060300021583E524D3941E40DAD2A880427436BF
:100613002CF8C000E6C313D000F6E524C3940840C9
:100623000874362CF8E64480F67524000508E508BE
:10063300C39408408A0CEC64047081E539F4B5383E
:100643000C7540017F057E00120A1280037540007D
:10065300D007D006D005D004D002D000D0D0D082AD
:05066300D083D0E0325D
:100A9A0075985075CAD975CCD975CBFF75CDFF75C8
:070AAA00C834D2ACD2AF2228
:080AD7008F993099FDC29922AC
:03002300020A824C
:100A8200C0D0309809C298859980A29A92A23099D2
:080A920004C299C201D0D03268
:090ACE002001FDEFD201F599228F
:0609AE007B007A00792CA9
:1009B4008B0C8A0D890EAB0CAA0DA90E12028B604A
:1009C40013050EE50E7002050D14F912028BFF12C9
:0509D4000ACE80E222C2
:100A2800D3E5229547E52194005004D2B58002C24F
:100A3800B5C3E52294C8E52194004005E4F521F505
:020A4800222268
:10095400E531640145307003C29022D3E546952306
:10096400E54594005004D2908002C290C3E54694B9
:0D097400C8E54594004005E4F545F5462230
:03001B0002098156
:10098100C0E0C0D0758DFF758B9C0535E5357002D3
:1009910005340522E522700205210546E54670026F
:0D09A1000545120A28120954D0D0D0E032CA
:100A4A00AB05AA047C007D141202A47DB41202B67E
:0F0A5A00EF2405F547D3E5359BE5349A40F722A5
:10074E00E4F50AF50B8006E53345327005120ADF33
:10075E0080F5120A03C3E53594E8E5349403400BA3
:10076E00E4F534F53512000E120668AF0BAE0A1220
:10077E0008A01209AE7BFF7A0979251209B47B0015
:10078E007A0079271209B47BFF7A0979271209B406
:10079E00050BE50B7002050AC394B4E50A64809458
:1007AE008040AA750A00750BB48006E53345327099
:1007BE0005120ADF80F5120A03C3E53594E8E53425
:1007CE009403400BE4F534F53512000E120668AFB3
:1007DE000BAE0A1208A01209AE7BFF7A0979251218
:1007EE0009B47B007A0079271209B47BFF7A097964
:1007FE00271209B4E50B150B7002150AC3E50A643E
:05080E0080948050AC55
:0108130022C2
:070ADF00753200753301229E
:0A000E00D2917F1E120018C2912249
:03000B00020006EA
:05000600D200C290329F
:100668003090FDD28C2090FDC28CAF8CEFFEAD8A0D
:100678007C00E42DF526EC3EF525E4F58CF58AACF6
:1006880025AD261201D17B9A7A9979D9783F120043
:1006980026E4FBFA79C8784212012F12020A8F3F2A
:1006A8008E3E8D3D8C3CE47FBC7E02FDFCAB3FAAB8
:1006B8003EA93DA83CC312041D5003300004C200EB
:1006C800807BE47B0AFAF9F8AF3FAE3EAD3DAC3C27
:1006D80012037DAF038F41E47B0AFAF9F8AF3FAE0E
:1006E8003EAD3DAC3C12037DE47B0AFAF9F81203F7
:1006F8007DAF038F42E47B64FAF9F8AF3FAE3EADBD
:100708003DAC3C12037DE47B0AFAF9F812037DAF95
:10071800038F43E47BE87A03F9F8AF3FAE3EAD3D83
:10072800AC3C12037D8F44EF90094593F527E543D0
:1007380093F528E54293F529E54193F52AAF3FAEB5
:060748003EAD3DAC3C2279
:1008A000AB07AA067C007D0A12030B8D417C007DFC
:1008B0000AAF03AE0212030B7C007D0A12030B8DFC
:1008C00042AE02AF037C007D6412030B7C007D0A04
:1008D00012030B8D43E54390094593F52CE54293B4
:0808E000F52DE54193F52E22F0
:1009D900C2A58F807F017E001209EAD2A77F057E1A
:0109E900000D
:1009EA00D3EF9400EE9400400F7DC77C01DCFEDD5E
:0809FA00FAEF1F70EB1E80E80C
:010A020022D1
:0A0AB100C2A7C2A61209D9C2A722EB
:0A0ABB00C2A7D2A61209D9C2A722D1
:100A69007F38120AB17F0C120AB17F06120AB17FD0
:090A790001120AB17F80020AB1EA
:10002600EC4D6011E8497017ED33EC3304600DE4D4
:10003600FCFFFEFD22E933E8330470F80202761273
:10004600024158046009E4CC248150062850090274
:10005600028028400302027DC0E0EB4A7044B9806A
:1000660006D0E0FB02026CEF4E701CBD8008EBFF71
:10007600EAFEE9FD80EBE98DF0A4FEE5F002010F52
:10008600E9CDF9EAFEEBFFEF89F0A4FCE5F0CE89B5
:10009600F0A42EFFE435F0CD89F0A42DFEE435F072
:1000A6008067EF4E7005BD80D780C3EF8BF0A4ACA0
:1000B600F0EE8BF0A42CFCE435F0F8EF8AF0A42CDB
:1000C600E5F038FCE433CB8DF0A42CFCE5F03BF8EE
:1000D600EE8AF0A42CFCE5F038F8E433CF89F0A4DE
:1000E6002CFCE5F038CF3400CE89F0A42FFFE5F0E4
:1000F6003EFEE433C98DF0A42EFEE5F039CD8AF03C
:10010600A42FFFE5F03EFEE43DFD33D0E0FB5007B3
:100116000BBB000F020280EC2CFCEF33FFEE33FE2C
:06012600ED33FD0202585A
:10012C00020280EC5D046005E8590470030202765B
:10013C00120241580460F6EC4860F2EC7004FDFECB
:10014C00FF22C860DB2481C85009C39860025006A6
:10015C0002027D9850CAF582E9294B4A7005AB82A0
:10016C0002026C75F0007C1A7880C3EF9BEE9AED5E
:10017C0099400DC3EF9BFFEE9AFEED99FDE842F01E
:10018C00DC23ACF0D0E0FFD0E0FED0E0FDAB822071
:10019C00E7101BEB60BAEC2CFCEF33FFEE33FEEDFB
:1001AC0033FD020258E803F830E705C0F075F000A3
:1001BC00EF2FFFEE33FEED33FD40B830E7C280AADF
:1001CC0075F020800E75F010800575F0087D007EAE
:1001DC00007F003392D530D50312040FEC3340105E
:1001EC00EF33FFEE33FEED33FDEC33FCD5F0ED22B7
:0E01FC00E5F0247EA2D513CC92E7CDCEFF22F3
:10020A00EDD2E7CD33EC3392D524814006E4FFFEEC
:10021A00FDFC22FCE4CFCECDCC24E0501174FF804B
:10022A00EDC3CC13CCCD13CDCE13CECF13CF0470E8
:07023A00F030D5DE02040FD5
:10024100E9D2E7C933E833F892D5EDD2E7CD33EC03
:0702510033FC5002B2D5227C
:10025800EC30E7100FBF000C0EBE00080DBD000407
:100268000BEB6014A2D5EB13FCED92E7FD2274FFB3
:10027800FCFDFEFF22E480F8A2D574FF13FC7D800C
:03028800E480EF20
:03000000020814DF
:0C081400787FE4F6D8FD75814702085B90
:10028B00BB010689828A83E0225002E722BBFE0271
:09029B00E32289828A83E49322A4
:1002A400EF8DF0A4A8F0CF8CF0A428CE8DF0A42E6E
:0202B400FE2228
:1002B600BC000BBE0029EF8DF084FFADF022E4CC2C
:1002C600F875F008EF2FFFEE33FEEC33FCEE9DECF5
:1002D600984005FCEE9DFE0FD5F0E9E4CEFD22ED3B
:1002E600F8F5F0EE8420D21CFEADF075F008EF2F85
:1002F600FFED33FD4007985006D5F0F222C398FD76
:050306000FD5F0EA2212
:10030B00C2D5EC30E709B2D5E4C39DFDE49CFCEE0D
:10031B0030E715B2D5E4C39FFFE49EFE1202B6C3CD
:10032B00E49DFDE49CFC80031202B630D507C3E4C8
:06033B009FFFE49EFE227C
:1003410075F008758200EF2FFFEE33FECD33CDCC73
:1003510033CCC58233C5829BED9AEC99E5829840F6
:100361000CF582EE9BFEED9AFDEC99FC0FD5F0D6D3
:10037100E4CEFBE4CDFAE4CCF9A88222B800C1B9FD
:100381000059BA002DEC8BF084CFCECDFCE5F0CB3B
:10039100F97818EF2FFFEE33FEED33FDEC33FCEB74
:1003A10033FB10D703994004EB99FB0FD8E5E4F92F
:1003B100FA227818EF2FFFEE33FEED33FDEC33FC1C
:1003C100C933C910D7059BE99A4007EC9BFCE99A10
:1003D100F90FD8E0E4C9FAE4CCFB2275F010EF2F55
:1003E100FFEE33FEED33FDCC33CCC833C810D70755
:1003F1009BEC9AE899400AED9BFDEC9AFCE899F890
:0E0401000FD5F0DAE4CDFBE4CCFAE4C8F92222
:0E040F00C3E49FFFE49EFEE49DFDE49CFC22FE
:10041D00EB9FF5F0EA9E42F0E99D42F0E89C45F035
:01042D0022AC
:1008200002042EE493A3F8E493A34003F68001F2BC
:1008300008DFF48029E493A3F85407240CC8C333D9
:10084000C4540F4420C8834004F456800146F6DFA8
:10085000E4800B01020408102040809008E8E47E48
:10086000019360BCA3FF543F30E509541FFEE4939D
:10087000A360010ECF54C025E060A840B8E493A364
:10088000FAE493A3F8E493A3C8C582C8CAC583CA8F
:10089000F0A3C8C582C8CAC583CADFE9DEE780BE47
:0109240000D2
:00000001FF
