:10000000020364E709F608DFFA8046E709F208DF31
:10001000FA803E88828C83E709F0A3DFFA8032E31E
:1000200009F608DFFA8078E309F208DFFA807088C1
:10003000828C83E309F0A3DFFA806489828A83E0FB
:10004000A3F608DFFA805889828A83E0A3F208DFEA
:10005000FA804C80D280FA80C680D4806980F28099
:1000600033801080A680EA809A80A880DA80E280BF
:10007000CA803389828A83ECFAE493A3C8C582C814
:10008000CCC583CCF0A3C8C582C8CCC583CCDFE97E
:10009000DEE7800D89828A83E493A3F608DFF9EC1A
:1000A000FAA9F0EDFB2289828A83ECFAE0A3C8C5A5
:1000B00082C8CCC583CCF0A3C8C582C8CCC583CCCC
:1000C000DFEADEE880DB89828A83E493A3F208DF3B
:1000D000F980CC88F0EF60010E4E60C388F0ED240B
:1000E00002B4040050B9F582EB2402B4040050AF0E
:1000F000232345822390005373BC000BBE0029EFDD
:100100008DF084FFADF022E4CCF875F008EF2FFFFE
:10011000EE33FEEC33FCEE9DEC984005FCEE9DFECC
:100120000FD5F0E9E4CEFD22EDF8F5F0EE8420D213
:100130001CFEADF075F008EF2FFFED33FD40079882
:100140005006D5F0F222C398FD0FD5F0EA228F0CAD
:100150008C0D8D0E780F7C007D007BFF7A037998E3
:100160007E007F081200D3AE0DAF0E7C007D0A1218
:1001700000F974702DF58274033CF583E493F50F58
:10018000AE0DAF0E7C007D0A1200F97C007D0A12D4
:1001900000F974702DF58274033CF583E493F51037
:1001A000AE0DAF0E7C007D641200F97C007D0A125A
:1001B00000F974702DF58274033CF583E493F51116
:1001C000E50C90037093F513A201E43393F515E465
:1001D000FDED1392A2EDC3131392A3ED1313543F3D
:1001E0001392A4740F2DF8E6FFB4FF05E4F58080A8
:1001F000028F807F647E00120359E4F5800DBD08F4
:10020000D022750803750A03750BDE1202E48F090C
:10021000E50924FE601814602914603F2403703D32
:100220000508E508D394034034750801802FC3E521
:100230000B94DEE50A94035024745A250BF50BE465
:100240008013D3E50B9400E50A9400401074A625B2
:100250000BF50B74FF350AF50A8002B200E4F509CC
:10026000A2009201AD0BAC0AAF0812027CA2009270
:1002700001AD0BAC0AAF0812014E808F8C0C8D0DB6
:10028000AA07EAD39403505BEA6058C3E50D94E8EB
:10029000E50C9403504D300120E4FBEA75F008A40E
:1002A0002478F582E43403F583E5822BF582E43586
:1002B0008312032F0BBB08E322E4FBEBFFC374079D
:1002C0009FFFE49400FEEA75F008A42478F582E428
:1002D0003403F583E5822FF582E5833E12032F0B6D
:1002E000BB08D82220B10F12035520B103120355C9
:1002F00030B1FD7F012220B00F12035520B0031250
:10030000035530B0FD7F022220B20F12035520B2F8
:100310000312035530B2FD7F032220B30F120355A1
:1003200020B30312035530B3FD7F04227F0022F572
:1003300083E493F590C374E8950DFF7403950CFE68
:100340007DC7D3EF9400EE94004007EF1F70F31EBB
:1003500080F0DDEE227F0A7E00EF1FAC0670011EEA
:100360004C70F622787FE4F6D8FD758120020202F7
:100370003F065B4F666D7D077F6F777C395E7971D5
:10038000010204080102040803060C0903060C0913
:1003900001030206040C0809FFFFFFFFFFFFFFFF38
:00000001FF
