:10024F003F065B4F666D7D077F6F777C395E7971F7
:08025F00FFFFFFFFFFFFFFFF9F
:0B028900EF1FAC0670011E4C70F62247
:10026700758920758780759850758DF9758BF9D2CA
:060277008ED2ACD2AF22D2
:03002300020003D5
:10000300C0E0C0D0C29885991085109974802510DE
:0C001300F5103099FDC299D0D0D0E03239
:1001420078087C007D007BFF7A02795F7E007F0861
:100152001200F6120267E510540FF508E510C454B8
:100162000FF5097C00ECF50AC4540FF50BE4FDED24
:100172001392A2EDC3131392A3ED1313543F1392E0
:10018200A474082DF8E6FFB4FF05E4F5808013EFB0
:100192003395E0FE744F2FF58274023EF583E493AB
:1001A200F5807F647E00120289E4F5800DBD08BFF0
:1001B200E51012011C01EB0001F30101FB02020137
:1001C20003020704020D05021306021907021F08A3
:1001D200022509022B10023111023712023D1302CD
:1001E200431402491500000158E4F50DC2A00201B2
:1001F20058750D01D2A0020158750D020201587501
:100202000D03020158750D04020158750D05020116
:1002120058750D06020158750D07020158750D0833
:10022200020158750D09020158750D0A020158752F
:100232000D0B020158750D0C020158750D0D0201CE
:0D02420058750D0E020158750D0F02015880
:0300000002027D7C
:0C027D00787FE4F6D8FD75811002014284
:10002600E709F608DFFA8046E709F208DFFA803EBC
:1000360088828C83E709F0A3DFFA8032E309F608A9
:10004600DFFA8078E309F208DFFA807088828C8311
:10005600E309F0A3DFFA806489828A83E0A3F608C5
:10006600DFFA805889828A83E0A3F208DFFA804C9F
:1000760080D280FA80C680D4806980F28033801076
:1000860080A680EA809A80A880DA80E280CA8033DF
:1000960089828A83ECFAE493A3C8C582C8CCC58357
:1000A600CCF0A3C8C582C8CCC583CCDFE9DEE78027
:1000B6000D89828A83E493A3F608DFF9ECFAA9F0A6
:1000C600EDFB2289828A83ECFAE0A3C8C582C8CCFC
:1000D600C583CCF0A3C8C582C8CCC583CCDFEADE15
:1000E600E880DB89828A83E493A3F208DFF980CC77
:1000F60088F0EF60010E4E60C388F0ED2402B40470
:100106000050B9F582EB2402B4040050AF23234516
:06011600822390007673C5
:10011C00D083D082F8E4937012740193700DA3A372
:10012C0093F8740193F5828883E473740293686086
:06013C00EFA3A3A380DF86
:00000001FF
