:10009E003F065B4F666D7D077F6F777C395E7971AA
:0100AE000051
:0B00BB00EF1FAC0670011E4C70F62217
:10000300E4FDEDB40800504D900012F82828730267
:10001300002A02002E02003602003A0200420200C9
:100023004602004E020052C2A28002D2A2C2A3C262
:10003300A48022C2A28002D2A2D2A3C2A48016C2EA
:10004300A28002D2A2C2A3D2A4800AC2A28002D2F8
:10005300A2D2A3D2A4ED90009E93F5807F107E27B9
:0C0063001200BBE4F5800DED64087096FF
:01006F00226E
:1000700020B1237F0A7E001200BB20B2047F0180E2
:10008000027F0020B1047E0180027E00EE5F6006E8
:0E00900012000320B1FAA2B1B3B0B240F922BF
:0300C600020070C5
:030000000200AF4C
:0C00AF00787FE4F6D8FD7581070200C6DA
:00000001FF
